:020000040000FA
:0400000045EF12F0C6
:10060000003F065B4F666D7D077F6F777C395E79B3
:1006100071554C44525358414259734573636F6C42
:100620006861206F2065666569746F3A0053656C78
:100630006563696F6E61646F3A200020202020207E
:10064000566F6C756D6500766F6C756D653A200040
:05065000313030000014
:10065600000E956E000E836E000E3D6E010E3C6E12
:10066600ABEC0EF086EC11F005EC11F038EC12F064
:10067600000E396E000E386E000E3B6E000E3A6E9E
:100686003EC036F03FC037F0000E026E180E016E07
:10069600000E046E000E036E12EC08F0000E026EE1
:1006A600190E016E000E046E000E036E12EC08F0B9
:1006B600000E026E1A0E016E000E046E000E036E20
:1006C60012EC08F0000E026E1B0E016E000E046E98
:1006D600000E036E12EC08F0000E106E000E0F6E88
:1006E600000E126E000E116E69EC11F02D0E0F6EDB
:1006F600060E106E8BEC10F03CC00FF03DC010F0F3
:1007060097EC0FF0000E106E010E0F6E000E126EBB
:10071600000E116E69EC11F0470E0F6E060E106E8C
:100726008BEC10F0640E36183710D8B49DEF03F03A
:100736009FEF03F0A7EF03F036C00FF037C010F0BD
:1007460097EC0FF0ADEF03F0500E0F6E060E106E25
:100756008BEC10F0A5EC0CF03CC083FF50EC12F0D3
:100766004050011809E141500218D8B4BDEF03F01A
:10077600BFEF03F03BEF03F050EC12F001C040F086
:1007860002C041F040AACAEF03F0CCEF03F084EFB9
:1007960004F0010E29EC12F07AEF04F0000E836EDD
:1007A6003A4A3B2AA5EC0CF07D0E3A183B10D8A429
:1007B600DFEF03F0E1EF03F007EF04F0000E106E39
:1007C600000E0F6E000E126E000E116E69EC11F027
:1007D6001B0E0F6E060E106E8BEC10F0000E106ED8
:1007E600010E0F6E000E126E070E116E69EC11F0FF
:1007F6003CC00FF03DC010F097EC0FF0A5EC0CF0EC
:10080600000E3B6E970E3A6E140E3A1806E13B0444
:10081600D8A410EF04F012EF04F029EF04F0010E53
:1008260029EC12F0000E106E000E0F6E000E126E06
:10083600000E116E69EC11F01B0E0F6E060E106E97
:100846008BEC10F0000E3B6E000E3A6E50EC12F080
:100856004050011809E141500218D8B435EF04F0B0
:1008660037EF04F07AEF04F050EC12F001C040F0DC
:1008760002C041F040A042EF04F044EF04F046EF1E
:1008860004F03C4A3D2A3D5009E1100E3C5CD8A0DC
:100896004FEF04F051EF04F055EF04F0000E3D6EFB
:1008A600010E3C6E40A45AEF04F05CEF04F05FEFDB
:1008B60004F03C06D8A03D063C503D10D8A466EF97
:1008C60004F068EF04F06CEF04F0000E3D6E0F0EBE
:1008D6003C6E40AA71EF04F073EF04F07AEF04F077
:1008E600000E396E640E386E010E29EC12F0640E9D
:1008F60038183910D8A482EF04F084EF04F0D1EF51
:1009060003F040AE89EF04F08BEF04F03BEF03F009
:1009160060EC10F0010E29EC12F03B0E0F6E060E85
:10092600106E8BEC10F0EFEF05F0AC0E176EC80EE4
:10093600186EC80E196E3D0E1A6E000E026E000E6F
:10094600016EB6EC10F001C005F002C006F0000E14
:1009560006BEFF0E076E086E010E60EC0AF005C0BB
:1009660013F006C014F007C015F008C016F0FDEC31
:1009760005F013C02CF014C02DF015C02EF016C0D3
:100986002FF0C6EC0DF02CC03EF02DC03FF0030E4C
:100996000F6E3EC009F03FC00AF0000E0C6E0A0E44
:1009A6000B6E05EC0FF0095034EC10F0020E0F6ED2
:1009B600000E046E0A0E036E3EC001F03FC002F048
:1009C60049EC0EF001C009F002C00AF0000E0C6EF0
:1009D6000A0E0B6E05EC0FF0095034EC10F0010E08
:1009E6000F6E000E046E640E036E3EC001F03FC033
:1009F60002F049EC0EF001C009F002C00AF0000E48
:100A06000C6E0A0E0B6E05EC0FF0095034EC10F06C
:100A1600000E0F6E030E046EE80E036E3EC001F06C
:100A26003FC002F049EC0EF001C009F002C00AF026
:100A3600000E0C6E0A0E0B6E05EC0FF0095034EC2E
:100A460010F0000E026E180E016E000E046E000EFF
:100A5600036E12EC08F0000E026E190E016E000E07
:100A6600046E000E036E12EC08F0000E026E1A0EF3
:100A7600016E000E046E000E036E12EC08F0000EFE
:100A8600026E1B0E016E000E046E000E036E12EC5B
:100A960008F03A4A3B2A280E3A183B10D8A456EFDB
:100AA60005F058EF05F076EF05F0010E29EC12F08F
:100AB600000E3B6E290E3A6E3AEC0BF0000E436EBA
:100AC600000E426EE80E425C030E4358D8A06EEF4D
:100AD60005F070EF05F072EF05F076EF05F0424A8B
:100AE600432A65EF05F0510E3A183B10D8A47EEF65
:100AF60005F080EF05F0A1EF05F03B0E0F6E060E38
:100B0600106E8BEC10F0000E3B6E000E3A6E3AEC57
:100B16000BF0000E436E000E426EE80E425C030EB2
:100B26004358D8A099EF05F09BEF05F09DEF05F02F
:100B3600A1EF05F0424A432A90EF05F0A5EC0CF030
:100B460050EC12F04050011809E141500218D8B497
:100B5600AFEF05F0B1EF05F0C5EF05F050EC12F080
:100B660001C040F002C041F040AEBCEF05F0BEEF60
:100B760005F0C5EF05F0000E396E640E386E010EF5
:100B860029EC12F03AEC0BF03EC001F03FC002F047
:100B9600000E046E640E036EE1EC11F001C00FF05E
:100BA60002C010F0F4EC11F03E50D1EC0FF0000E44
:100BB600436E000E426EE80E425C030E4358D8A008
:100BC600E7EF05F0E9EF05F0EBEF05F0EFEF05F0E5
:100BD600424A432ADEEF05F0640E38183910D8A4CD
:100BE600F7EF05F0F9EF05F098EF04F03BEF03F0AF
:100BF60000EF00F01650800B1F6E16501624256E5F
:100C060015AE08EF06F00AEF06F00BEF06F02580AA
:100C16002550D8B411EF06F013EF06F026EF06F0D4
:100C26002528D8A419EF06F01BEF06F023EF06F0EF
:100C3600000E136E000E146E000E156E000E166E6C
:100C4600158E2EEF06F0000E136E000E146E000EBB
:100C5600156E000E166E1A50800B1F1A1A501A24A3
:100C6600246E19AE39EF06F03BEF06F03CEF06F0C6
:100C760024802450D8B442EF06F044EF06F057EF34
:100C860006F02428D8A44AEF06F04CEF06F054EFFD
:100C960006F0000E176E000E186E000E196E000E8E
:100CA6001A6E198E5FEF06F0000E176E000E186EA4
:100CB600000E196E000E1A6E2450D8B465EF06F0B9
:100CC60067EF06F06FEF06F02550D8A46DEF06F03B
:100CD6006FEF06F079EF06F0000E136E000E146E3D
:100CE600000E156E000E166E11EF08F01950130265
:100CF600F3CF2AF0F4CF2BF02A50206E216A226A15
:100D0600236A2B50266E276A286A296A185014020D
:100D1600F3CF2AF0F4CF2BF02A502026000E212202
:100D2600222223222B502626000E27222822292281
:100D360017501502F3CF2AF0F4CF2BF02A502026B5
:100D4600000E2122222223222B502626000E2722A5
:100D56002822292222C023F021C022F020C021F01F
:100D6600206A17501402F3CF2AF0F4CF2BF02A5042
:100D760020262B502122000E2222000E232218505C
:100D86001302F3CF2AF0F4CF2BF02A5020262B5053
:100D96002122000E2222000E232222C023F021C08F
:100DA60022F020C021F0206A17501302F3CF2AF058
:100DB600F4CF2BF02A5020262B502122000E22227F
:100DC600000E232219501402F3CF2AF0F4CF2BF091
:100DD6002A5026262B502722000E2822000E2922D2
:100DE60018501502F3CF2AF0F4CF2BF02A502626FE
:100DF6002B502722000E2822000E292219501502F8
:100E0600F3CF2AF0F4CF2BF02A501B6E2B501C6E1A
:100E16001D6A1E6A1DC01EF01CC01DF01BC01CF002
:100E26001B6A1B5026261C5027221D5028221E50A6
:100E3600292220C01BF021C01CF022C01DF023C0B7
:100E46001EF0190E2CEF07F0D8901E321D321C3200
:100E56001B32E82E27EF07F01B5026261C502722B0
:100E66001D5028221E50292222C023F021C022F024
:100E760020C021F0206A245025C01BF01C6A1B26C6
:100E8600000E1C22820E1B242A6EFF0E1C202B6EC7
:100E960062EF07F0D890263627362836293623AE55
:100EA60057EF07F059EF07F05AEF07F02680D89072
:100EB60020362136223623362A06D8A02B0628AE1F
:100EC60067EF07F069EF07F04DEF07F0000E246EAD
:100ED60023AE70EF07F072EF07F096EF07F0FF0E04
:100EE60020141B6EFF0E21141C6EFF0E22141D6EA5
:100EF6007F0E23141E6E1B501C101D101E10D8B41E
:100F060087EF07F089EF07F08DEF07F0010E246EEB
:100F160096EF07F026A092EF07F094EF07F096EF12
:100F260007F089EF07F02450D8B49CEF07F09EEF46
:100F360007F0C2EF07F0010E2626000E2722282210
:100F4600292229A0A9EF07F0ABEF07F0C2EF07F0BF
:100F560026C01BF027C01CF028C01DF029C01EF0BB
:100F66001E341E321D321C321B321BC026F01CC022
:100F760027F01DC028F01EC029F02A4A2B2A2BBEB6
:100F8600CDEF07F02B5008E12A28D8A0CDEF07F0C7
:100F9600CFEF07F0D9EF07F0000E266E000E276E92
:100FA600800E286E7F0E296E07EF08F02BBEE6EF47
:100FB60007F02B5006E12A04D8B0E4EF07F0E6EF7D
:100FC60007F0F2EF07F0000E266E000E276E000EF9
:100FD600286E000E296E000E1F6E07EF08F02AC05D
:100FE60025F0FF0E2616FF0E27167F0E2816000E7A
:100FF600291625A001EF08F003EF08F004EF08F02A
:10100600288ED8902530296E1F50291226C013F03D
:1010160027C014F028C015F029C016F0120002BE31
:1010260020EF08F0025007E1080E015CD8B01EEF71
:1010360008F020EF08F04AEF08F003500410D8B487
:1010460027EF08F029EF08F039EF08F001C005F0A6
:10105600010E066E052A32EF08F0D8900636052EE8
:1010660030EF08F00650801238EF09F001C005F0A5
:10107600010E066E052A42EF08F0D8900636052EB8
:1010860040EF08F00650FF0A801638EF09F002BE5E
:1010960058EF08F0025007E1100E015CD8B056EF89
:1010A60008F058EF08F086EF08F0F80E0126FF0E5C
:1010B600022203500410D8B463EF08F065EF08F07D
:1010C60075EF08F001C005F0010E066E052A6EEFF9
:1010D60008F0D8900636052E6CEF08F006508112FF
:1010E60038EF09F001C005F0010E066E052A7EEF05
:1010F60008F0D8900636052E7CEF08F00650FF0A59
:10110600811638EF09F002BE94EF08F0025007E1AD
:10111600180E015CD8B092EF08F094EF08F0C2EF19
:1011260008F0F00E0126FF0E022203500410D8B478
:101136009FEF08F0A1EF08F0B1EF08F001C005F04D
:10114600010E066E052AAAEF08F0D8900636052E7F
:10115600A8EF08F00650821238EF09F001C005F03A
:10116600010E066E052ABAEF08F0D8900636052E4F
:10117600B8EF08F00650FF0A821638EF09F002BEF3
:10118600D0EF08F0025007E1200E015CD8B0CEEF98
:1011960008F0D0EF08F0FEEF08F0E80E0126FF0E8B
:1011A600022203500410D8B4DBEF08F0DDEF08F09C
:1011B600EDEF08F001C005F0010E066E052AE6EF18
:1011C60008F0D8900636052EE4EF08F00650831294
:1011D60038EF09F001C005F0010E066E052AF6EF9C
:1011E60008F0D8900636052EF4EF08F00650FF0AF0
:1011F600831638EF09F002BE0CEF09F0025007E142
:10120600280E015CD8B00AEF09F00CEF09F038EFB0
:1012160009F0E00E0126FF0E022203500410D8B496
:1012260017EF09F019EF09F029EF09F001C005F0F1
:10123600010E066E052A22EF09F0D8900636052E15
:1012460020EF09F00650841238EF09F001C005F0CE
:10125600010E066E052A32EF09F0D8900636052EE5
:1012660030EF09F00650FF0A8416120002BE47EF5F
:1012760009F0025007E1080E015CD8B045EF09F00D
:1012860047EF09F071EF09F003500410D8B44EEFA0
:1012960009F050EF09F060EF09F001C005F0010E0A
:1012A600066E052A59EF09F0D8900636052E57EF37
:1012B60009F0065092125FEF0AF001C005F0010E28
:1012C600066E052A69EF09F0D8900636052E67EFF7
:1012D60009F00650FF0A92165FEF0AF002BE7FEF92
:1012E60009F0025007E1100E015CD8B07DEF09F05D
:1012F6007FEF09F0ADEF09F003500410D8B486EF84
:1013060009F088EF09F09AEF09F001C005F0F80E30
:101316000526010E066E052A93EF09F0D8900636CB
:10132600052E91EF09F0065093125FEF0AF001C007
:1013360005F0F80E0526010E066E052AA5EF09F042
:10134600D8900636052EA3EF09F00650FF0A93162D
:101356005FEF0AF002BEBBEF09F0025007E1180E7C
:10136600015CD8B0B9EF09F0BBEF09F0E9EF09F07D
:1013760003500410D8B4C2EF09F0C4EF09F0D6EF59
:1013860009F001C005F0F00E0526010E066E052ACD
:10139600CFEF09F0D8900636052ECDEF09F00650AE
:1013A60094125FEF0AF001C005F0F00E0526010E5B
:1013B600066E052AE1EF09F0D8900636052EDFEF16
:1013C60009F00650FF0A94165FEF0AF002BEF7EF27
:1013D60009F0025007E1200E015CD8B0F5EF09F0E4
:1013E600F7EF09F025EF0AF003500410D8B4FEEF2A
:1013F60009F000EF0AF012EF0AF001C005F0E80E5E
:101406000526010E066E052A0BEF0AF0D890063661
:10141600052E09EF0AF0065095125FEF0AF001C09B
:1014260005F0E80E0526010E066E052A1DEF0AF0E8
:10143600D8900636052E1BEF0AF00650FF0A9516C1
:101446005FEF0AF002BE33EF0AF0025007E1280E02
:10145600015CD8B031EF0AF033EF0AF05FEF0AF023
:1014660003500410D8B43AEF0AF03CEF0AF04EEFFE
:101476000AF001C005F0E00E0526010E066E052AEB
:1014860047EF0AF0D8900636052E45EF0AF00650CB
:1014960096125FEF0AF001C005F0E00E0526010E78
:1014A600066E052A59EF0AF0D8900636052E57EF34
:1014B6000AF00650FF0A961612000D6E0D50D8B4AB
:1014C60067EF0AF069EF0AF08BEF0AF008BE70EFDB
:1014D6000AF06EEF0AF08BEF0AF005C009F006C0BD
:1014E6000AF007C00BF008C00CF0091E0A1E0B1EFE
:1014F6000C1E092A000E0A220B220C2209C00FF02C
:101506000AC010F00BC011F00CC012F093EF0AF0F5
:1015160005C00FF006C010F007C011F008C012F0A9
:101526000550061007100810D8A49CEF0AF09EEF8D
:101536000AF0A8EF0AF0000E056E000E066E000E09
:10154600076E000E086E39EF0BF0960E0E6EB2EFB8
:101556000AF00E2AD8901232113210320F32000ED3
:101566000F14096E000E10140A6E000E11140B6E85
:10157600FE0E12140C6E09500A100B100C10D8A493
:10158600C7EF0AF0C9EF0AF0ACEF0AF0D7EF0AF09E
:101596000E2A010E0F26000E102211221222D890BA
:1015A6001232113210320F32000E0F14096E000E75
:1015B60010140A6E000E11140B6EFF0E12140C6E30
:1015C60009500A100B100C10D8A4ECEF0AF0EEEF3D
:1015D6000AF0CBEF0AF0F6EF0AF00E06D8900F36B7
:1015E60010361136123611BEFBEF0AF0FDEF0AF087
:1015F60005EF0BF0020E0E6003EF0BF005EF0BF09C
:10160600F0EF0AF00EB00AEF0BF00CEF0BF00DEF57
:101616000BF0119ED8900E320EC009F00A6A0B6AC2
:101626000C6A09C00CF00B6A0A6A096A09500F12A3
:101636000A5010120B5011120C5012120D50D8B441
:1016460027EF0BF029EF0BF031EF0BF008BE30EF70
:101656000BF02EEF0BF031EF0BF0128E0FC005F0F2
:1016660010C006F011C007F012C008F01200000EFC
:10167600026E180E016E000E046E000E036E12EC62
:1016860008F0000E026E190E016E000E046E000EBA
:10169600036E12EC08F0000E026E1A0E016E000EBA
:1016A600046E000E036E12EC08F0000E026E1B0EA6
:1016B600016E000E046E000E036E12EC08F0000EB2
:1016C600086E000E076EDEEC10F0D2EF0BF0010E86
:1016D6004D24F66EF76A060EF7220800F550076EDF
:1016E600086ADEEC10F0000E026E180E016E000E97
:1016F600046E010E036E12EC08F0010E4E6EEFEF53
:101706000BF0010E4C24F66EF76A060EF72208005F
:10171600F550076E086ADEEC10F0000E026E190E28
:10172600016E000E046E010E036E12EC08F0020E3E
:101736004E6EEFEF0BF0010E4B24F66EF76A060EB7
:10174600F7220800F550076E086ADEEC10F0000E6E
:10175600026E1A0E016E000E046E010E036E12EC7E
:1017660008F0030E4E6EEFEF0BF0010E4A24F66EF4
:10177600F76A060EF7220800F550076E086ADEECD7
:1017860010F0000E026E1B0E016E000E046E010EAE
:10179600036E12EC08F0000E4E6EEFEF0BF04E509B
:1017A6000A6E0B6A0B50000AD8B4DCEF0BF0CEEFD2
:1017B6000BF00A50000AD8B46AEF0BF0010AD8B44D
:1017C60084EF0BF0030AD8B49EEF0BF0010AD8B4ED
:1017D600B8EF0BF0CEEF0BF0120002BEFEEF0BF0EF
:1017E600025007E1080E015CD8B0FCEF0BF0FEEFEB
:1017F6000BF012EF0CF001C003F0010E046E032A89
:1018060007EF0CF0D8900436032E05EF0CF00450C9
:101816008014056E0550016E026AA4EF0CF002BE3C
:1018260020EF0CF0025007E1100E015CD8B01EEF5D
:101836000CF020EF0CF036EF0CF001C003F0F80EC0
:101846000326010E046E032A2BEF0CF0D890043603
:10185600032E29EF0CF004508114056E0550016E1D
:10186600026AA4EF0CF002BE44EF0CF0025007E14E
:10187600180E015CD8B042EF0CF044EF0CF05AEFB2
:101886000CF001C003F0F00E0326010E046E032ACD
:101896004FEF0CF0D8900436032E4DEF0CF00450A9
:1018A6008214056E0550016E026AA4EF0CF002BEAA
:1018B60068EF0CF0025007E1200E015CD8B066EF2D
:1018C6000CF068EF0CF07EEF0CF001C003F0E80EB0
:1018D6000326010E046E032A73EF0CF0D89004362B
:1018E600032E71EF0CF004508314056E0550016E43
:1018F600026AA4EF0CF002BE8CEF0CF0025007E176
:10190600280E015CD8B08AEF0CF08CEF0CF0A2EF39
:101916000CF001C003F0E00E0326010E046E032A4C
:1019260097EF0CF0D8900436032E95EF0CF0045088
:101936008414056E0550016E026AA4EF0CF001686E
:1019460002681200000E476E000E466E000E0E6E06
:10195600000E0D6E0EBEB9EF0CF00E5009E1050E2D
:101966000D5CD8A0B9EF0CF0BBEF0CF0BDEF0CF09E
:101976001EEF0DF00DC00AF0030E0A26010E0B6EC7
:10198600000E0C6E0A2ACBEF0CF0D8900B360C36F4
:101996000A2EC8EF0CF00BC007F00CC008F0DEEC06
:1019A60010F0000E026E0A0E016EF0EC0BF0015004
:1019B6000210D8B4E1EF0CF0E3EF0CF0F6EF0CF008
:1019C6000DC00AF0010E0B6E000E0C6E0A2AEFEF28
:1019D6000CF0D8900B360C360A2EECEF0CF00B50B0
:1019E60046120C504712000E026E090E016EF0EC04
:1019F6000BF001500210D8B403EF0DF005EF0DF017
:101A06001AEF0DF00DC00AF0050E0A26010E0B6E38
:101A1600000E0C6E0A2A13EF0DF0D8900B360C361A
:101A26000A2E10EF0DF00B5046120C5047120D4ABD
:101A36000E2AADEF0CF04650441807E14750451802
:101A4600D8A428EF0DF02AEF0DF02DEF0DF04F067C
:101A560033EF0DF0010E4F6E46C044F047C045F01F
:101A66004F50D8A439EF0DF03BEF0DF03FEF0DF0DE
:101A760044C048F045C049F01200000E0A6E08BE88
:101A860049EF0DF047EF0DF053EF0DF0081E071E5E
:101A9600061E056C000E062207220822010E0A6E9B
:101AA60004BE5AEF0DF058EF0DF064EF0DF0041E72
:101AB600031E021E016C000E022203220422010EE6
:101AC6000A1A000E0B6E000E0C6E000E0D6E000E46
:101AD6000E6E0550061007100810D8B475EF0DF0FD
:101AE60077EF0DF0ADEF0DF0010E096E81EF0DF001
:101AF600D8900536063607360836092A08AE86EF28
:101B06000DF088EF0DF07BEF0DF0D8900B360C360C
:101B16000D360E360550015C065002580750035824
:101B260008500458D8A09AEF0DF09CEF0DF0A5EFE1
:101B36000DF00550015E0650025A0750035A085030
:101B4600045A0B80D8900832073206320532092E25
:101B560088EF0DF00A50D8B4B3EF0DF0B5EF0DF0E5
:101B6600BDEF0DF00E1E0D1E0C1E0B6C000E0C2292
:101B76000D220E220BC001F00CC002F00DC003F0C6
:101B86000EC004F012002E342F34356E3550D8A412
:101B9600CFEF0DF0D1EF0DF0DBEF0DF0000E2C6E58
:101BA600000E2D6E000E2E6E000E2F6E48EF0EF0FC
:101BB6002CC030F02DC031F02EC032F02FC033F0E3
:101BC600200EEBEF0DF0D890333232323132303214
:101BD600E82EE6EF0DF03050346E2E8EFF0E2C16EA
:101BE600FF0E2D16FF0E2E16000E2F16960E355EC4
:101BF60035BE02EF0EF000EF0EF018EF0EF0355086
:101C0600800A970FD8B00AEF0EF00CEF0EF00EEF29
:101C16000EF0D1EF0DF0D8902F322E322D322C321D
:101C2600353E0EEF0EF030EF0EF01F0E35641EEF50
:101C36000EF020EF0EF028EF0EF0D1EF0DF0D89059
:101C46002C362D362E362F3635063550D8A42EEFA7
:101C56000EF030EF0EF022EF0EF03450D8B436EF1F
:101C66000EF038EF0EF040EF0EF02F1E2E1E2D1E3A
:101C76002C6C000E2D222E222F222CC02CF02DC0D3
:101C86002DF02EC02EF02FC02FF01200000E066E83
:101C960004BE52EF0EF050EF0EF058EF0EF0036C4C
:101CA600041ED8B0042A010E066E02BE5FEF0EF0C7
:101CB6005DEF0EF065EF0EF0016C021ED8B0022A41
:101CC600010E061A000E086E000E076E0350041071
:101CD600D8B470EF0EF072EF0EF09AEF0EF0010E20
:101CE600056E7AEF0EF0D89003360436052A04AE58
:101CF6007FEF0EF081EF0EF076EF0EF0D8900736FC
:101D060008360350015C04500258D8A08DEF0EF03F
:101D16008FEF0EF094EF0EF00350015E0450025A5E
:101D26000780D89004320332052E81EF0EF006505C
:101D3600D8B4A0EF0EF0A2EF0EF0A6EF0EF0076CEF
:101D4600081ED8B0082A07C001F008C002F0120029
:101D5600000E026E1C0E016E000E046E000E036E67
:101D660039EC09F0000E026E1D0E016E000E046EB7
:101D7600000E036E39EC09F04AEC11F0000E026E0B
:101D86000F0E016E9FEC11F0000E0B6E000E0A6E28
:101D9600030E07EC12F0000E026E050E016E9FECAC
:101DA60011F0000E0B6E000E0A6E030E07EC12F019
:101DB600000E026EA00E016E55EC12F0000E0B6EB8
:101DC600000E0A6E030E07EC12F0000E026EA00E55
:101DD600016E55EC12F0000E0B6E000E0A6E020E2E
:101DE60007EC12F0000E026E0A0E016E9FEC11F067
:101DF600280E29EC12F00C0E29EC12F0010E29EC3B
:101E060012F01200000E0E6E0ABE0EEF0FF00CEF6F
:101E16000FF014EF0FF0096C0A1ED8B00A2A010E53
:101E26000E6E0CBE1BEF0FF019EF0FF01FEF0FF049
:101E36000B6C0C1ED8B00C2A0B500C10D8B426EF25
:101E46000FF028EF0FF04CEF0FF0010E0D6E30EF94
:101E56000FF0D8900B360C360D2A0CAE35EF0FF07E
:101E660037EF0FF02CEF0FF00B50095C0C500A58AF
:101E7600D8A040EF0FF042EF0FF046EF0FF00B50F7
:101E8600095E0C500A5AD8900C320B320D2E37EFE1
:101E96000FF00E50D8B452EF0FF054EF0FF058EF8A
:101EA6000FF0096C0A1ED8B00A2A09C009F00AC048
:101EB6000AF01200000E066E000E056E03500410A6
:101EC600D8B468EF0FF06AEF0FF092EF0FF0010E43
:101ED600076E72EF0FF0D89003360436072A04AE69
:101EE60077EF0FF079EF0FF06EEF0FF0D890053621
:101EF60006360350015C04500258D8A085EF0FF057
:101F060087EF0FF08CEF0FF00350015E0450025A7A
:101F16000580D89004320332072E79EF0FF005C002
:101F260001F006C002F01200000E126E0A0E116ECB
:101F3600C3EF0FF011C003F012C004F00FC001F0A0
:101F460010C002F049EC0EF001C009F002C00AF020
:101F5600000E0C6E0A0E0B6E05EC0FF00950300FDA
:101F66001AEC12F011C001F012C002F0000E046E5D
:101F76000A0E036E49EC0EF001C011F002C012F019
:101F860012BED0EF0FF0125006E11104D8B0CEEF1A
:101F96000FF0D0EF0FF09DEF0FF012000A6E010E5A
:101FA600CB24016E026A000E02220AC003F0046A04
:101FB600E1EC11F001C00BF002C00CF00BC001F017
:101FC6000CC002F0000E046E190E036E5DEC0FF0ED
:101FD60001C00BF002C00CF0FF0E0B16030E0C1620
:101FE6000BC008F00CC009F0D89009320832D8901E
:101FF600093208320850BB6E0BC008F0030E0816F3
:102006000838F00BBA1212000D6E0DC00CF00C3A27
:102016000F0E0C160C50076E086ADEEC10F0000E60
:10202600026E1D0E016E0AC003F00BC004F012EC26
:1020360008F029EC11F00DC00CF00F0E0C160C5028
:10204600076E086ADEEC10F0000E026E1D0E016EC1
:102056000AC003F00BC004F012EC08F029EC11F0F2
:102066001200106E0F50D8A43BEF10F03DEF10F0A9
:102076003FEF10F010C04DF00F04D8A445EF10F05C
:1020860047EF10F049EF10F010C04CF0020E0F1899
:10209600D8A450EF10F052EF10F054EF10F010C02B
:1020A6004BF0030E0F18D8A45BEF10F05DEF10F0A5
:1020B6005FEF10F010C04AF01200000E026E180E0C
:1020C600016E000E046E000E036E39EC09F0000E70
:1020D600026E190E016E000E046E000E036E39ECD0
:1020E60009F0000E026E1A0E016E000E046E000E4E
:1020F600036E39EC09F0000E026E1B0E016E000E27
:10210600046E000E036E39EC09F04AEC11F0120071
:10211600000E146E000E136EA1EF10F013500F2474
:10212600116E14501020126E11C0F6FF12C0F7FF88
:102136000800F5501AEC12F0134A142A13500F2413
:10214600116E14501020126E11C0F6FF12C0F7FF68
:102156000800F5500009D8A4B3EF10F0B5EF10F061
:1021660091EF10F01200C30EC216025007E1030EE3
:10217600015CD8B0C1EF10F0C3EF10F0C7EF10F05C
:102186000144E846FC0BC212C282C2B2CDEF10F087
:10219600CFEF10F0C8EF10F0C4CF03F0046A03507D
:1021A600046E036AC3500326000E042203C001F026
:1021B60004C002F01200000E026E080E016E000E40
:1021C600046E000E036E12EC08F0000E096E000E8F
:1021D600026E1E0E016E800E0714036E046A12EC68
:1021E60008F0CCEC11F0D89007360836092A070E0D
:1021F600096400EF11F002EF11F0EAEF10F0B7EC0E
:1022060011F01200000E026E000E016E000E046E3A
:10221600010E036E39EC09F0000E026E010E016E1E
:10222600000E046E010E036E39EC09F0000E026E0C
:10223600020E016E000E046E010E036E39EC09F0FB
:10224600C2800C0EC16EAA0EC06E1200000E026E87
:102256001C0E016E000E046E010E036E12EC08F0E9
:10226600000E026E050E016E55EC12F0000E026EA7
:102276001C0E016E000E046E000E036E12EC08F0CA
:10228600000E026E050E016E55EC12F01200000EE5
:10229600026E1F0E016E000E046E000E036E39EC08
:1022A60009F0000E026E080E016E000E046E000E9E
:1022B600036E39EC09F0000E026E1E0E016E000E62
:1022C600046E000E036E39EC09F012000F50101068
:1022D600D8A470EF11F072EF11F077EF11F01150F2
:1022E6000F0B800F29EC12F00F041010D8A47EEF0C
:1022F60011F080EF11F085EF11F011500F0BC00FA8
:1023060029EC12F012004AEC11F0000E026E0A0ED1
:10231600016E000E046E010E036E39EC09F0000E1C
:10232600026E090E016E000E046E010E036E39EC8C
:1023360009F00C0EC16E1200000E056E000E046E42
:10234600A7EF11F0044A052A0150045C0550800AE3
:10235600036E0250800A0358D8A0B4EF11F0B6EF0E
:1023660011F0A5EF11F01200000E026E1F0E016EA5
:10237600000E046E010E036E12EC08F0000E026EE3
:102386001F0E016E000E046E000E036E12EC08F0B6
:102396001200000E026E080E016E000E046E010E93
:1023A600036E12EC08F0000E026E080E016E000EAF
:1023B600046E000E036E12EC08F0120001500302C8
:1023C600F3CF05F0F4CF06F001500402F3500626D1
:1023D60002500302F350062605C001F006C002F0C3
:1023E6001200480E016EE80E026E010E036E000E1C
:1023F600046E0FC005F010C006F0076A086A40ECCC
:102406000DF00104CB6E12000C6E0CC007F0086ACA
:10241600DEEC10F0000E026E1D0E016E0AC003F017
:102426000BC004F012EC08F029EC11F012000E6E4D
:10243600000E0B6E010E0A6E0E5007EC10F0000E29
:10244600026E500E016E55EC12F012000E6E000E6A
:102456000B6E000E0A6E0E5007EC10F0000E026EA8
:10246600020E016E9FEC11F012009492030ECA1236
:10247600CA840C0EBA6E000E106E640E0F6EF4EC6B
:1024860011F0120000EE44F00C0EEE6AE806FDE1D3
:10249600000EF86E00012BEF03F048C001F049C0B2
:0624A60002F0120012001A
:020000040020DA
:08000000FFFFFFFFFFFFFFFF00
:020000040030CA
:0E000000FF027100FF8380FF0FC00FE00F4072
:00000001FF
